:04000000FEEFFFF020
:102600000000030E206EE80E1F6E216A1BC514F534
:102610001CC515F51FC516F520C517F59DEC13F063
:102620001450226E22501F02F3C41DF5F4C41EF58F
:102630002002F3501E261D501B5C1B6E1E501C58A2
:102640001C6E010E2224D96EDA6A050EDA22DF50E2
:10265000226E2104D8A42FEF13F031EF13F034EFE2
:1026600013F022508009226E21501D6E1E6AD890F0
:102670001D361E360C0E1D24D96E050E1E20DA6E78
:1026800022C5DFF41FC514F520C515F5000E176E21
:102690000A0E166E9DEC13F014501F6E206A212A4C
:1026A000030E216456EF13F058EF13F006EF13F00A
:1026B0001200BE6ABF6AC06AC16AC26AC36A040104
:1026C000026B0A6B126B1A6B226B2A6BC66AF00ED6
:1026D000C76EC868C9680F0ECA6ECB68006BF00E73
:1026E000086F10691869070E206F2869016B096B64
:1026F000116B196B216B296B03690B6913691B69DA
:10270000070E236F2B6904690C6914691C690F0E8D
:10271000246F2C690201896B886B876B866B0401BF
:10272000056B066B076B0D6B0E6B0F6B156B166BEA
:10273000176B256B266B276B1200000E196E000EAF
:10274000186E16501710D8B4A8EF13F0AAEF13F0B4
:10275000D2EF13F0010E1A6EB2EF13F0D8901636C6
:1027600017361A2A17AEB7EF13F0B9EF13F0AEEF22
:1027700013F0D890183619361650145C17501558A7
:10278000D8A0C5EF13F0C7EF13F0CCEF13F016503D
:10279000145E1750155A1880D890173216321A2E18
:1027A000B9EF13F018C514F519C515F5120097EC1B
:1027B00014F0000E44EC14F0040E156EBE0E146EF0
:1027C000D6EC14F0DDEC14F0270E266E0F0E256EFD
:1027D00025C51BF526C51CF501EC13F02506D8A070
:1027E00026060B0E246E260E236E5E0EE82EFED7F6
:1027F000232EFCD7242EFAD7E8EF13F0FEEFFFF0DC
:102800000001E86B0C0EF96F050EFA6F000EFB6FFE
:10281000030EF16FD90EF06F420EFD6F000EF86FD0
:10282000080EF76F000EEF6F020EEE6F1F0EFF6FB8
:10283000FE6BB09AB098B09EB09CA09AA098A09E53
:10284000A09C800EFC6F1200D69AAF90D680000E2E
:10285000146E000E156E000E166ECFEC14F0B490D0
:10286000D682000E146E000E156E000E166EC8ECA9
:1028700014F0B890D684000E146E000E156E000E83
:10288000166EC1EC14F01200146E000ED6BE010ECE
:10289000156ED69E550E0001B46FAA0EB46FB4919A
:1028A00014C5B6F0550EB46FAA0EB46FB48115B04E
:1028B00002D0D69E01D0D68E12000001B46B070E56
:1028C000B56F070EB66F070EB76F070EB86F070E1E
:1028D000B96F070EBA6F070EBB6F070EBE6F070EFC
:1028E000BF6FF46AF36A1200600EF66E290EF76E7F
:1028F000000EF86E01EE01F110EE13F00900F5C4C0
:10290000EEF4E550E150FAE10001D7EF13F0130EB9
:102910000301196F186B580E1B6F000E276E000E07
:10292000286E000E296EB19E800E1A6F1200A6EC62
:1029300014F059EC13F087EC14F05DEC14F000EC9B
:1029400014F024EC14F0BAEC14F01200610E000143
:10295000AD6FAF6BB36B050EB16FB06BAC6B1200AC
:102960003F065B4F666D7D077F6F00000100020030
:0329700004000858
:10297400550E0001B46FAA0EB46FB481120014C5D1
:102984002AF515C52BF516C52CF5120014C52DF521
:1029940015C52EF516C52FF5120014C530F515C54D
:1029A40031F516C532F512000001E86B14C5F0F0DC
:0E29B40015C5F1F012000001E86BFC8D120059
:020000040001F9
:04FFFC0074EF14F09A
:020000040020DA
:10000000FFFFFFFFFFFFFFFFFFFFFFFFFFFFFFFF00
:10001000FFFFFFFFFFFFFFFFFFFFFFFFFFFFFFFFF0
:10002000FFFFFFFFFFFFFFFFFFFFFFFFFFFFFFFFE0
:10003000FFFFFFFFFFFFFFFFFFFFFFFFFFFFFFFFD0
:020000040030CA
:080000008CFDF7FF9FFFFFFFDD
:01000900FFF7
:00000001FF
