:020000040000FA
:04000000FEEFFFF020
:020000040001F9
:10FD1800B8ECFEF05FECFFF0AAECFEF09FECFEF012
:02FD28001200C7
:10FD2B003F065B4F666D7D077F6F004F0166027D5F
:10FD3B00046F08480E03011B6F130E196F000E188A
:10FD4B006FB19E800E1A6F1200610E0001AD6F0035
:10FD5B000EAF6F000EB36F050EB16F000EB06F00DC
:10FD6B000EAC6F1200000E0001606F000E616F0091
:10FD7B000E636F000E646F000E656F000E666F00F2
:10FD8B000E676F000E686F12002B0EF66EFD0EF7EE
:10FD9B006E010EF86E01EE01F110EE13F00900F595
:10FDAB00C4EEF4E550E150FAE10001F2EFFEF0147D
:10FDBB005016026100CCF318F56100D0F319F5145D
:10FDCB00501702F350192615501602F35019261826
:10FDDB00C514F519C515F512008CECFEF00FECFFF0
:10FDEB00F0270E266E0F0E256E25C51BF526C51C9E
:10FDFB00F5ADECFFF02506D8A026060B0E246E26DB
:10FE0B000E236E5E0EE82EFED7232EFCD7242EFA81
:10FE1B00D7EBD7000E0001E86F0C0EF96F050EFA49
:10FE2B006F000EFB6F040EF16FBE0EF06F420EFDF6
:10FE3B006F000EF86F080EF76F000EEF6F020EEEED
:10FE4B006F1F0EFF6F010EFE6FC00EFC6F00015592
:10FE5B000EB46FAA0EB46FB481000E0001B66F1210
:10FE6B0000000E196E000E186E16501710D8B41C29
:10FE7B00D0010E1A6E04D0D890163617361A2A17E0
:10FE8B00AEFAD7D890183619361650145C17501591
:10FE9B0058D8A005D01650145E1750155A1880D894
:10FEAB0090173216321A2EEDD718C514F519C51541
:10FEBB00F51200000EC26E000EC16E000EBE6E007B
:10FECB000EC36E000EBF6E000EC06E070ECA6ECB59
:10FEDB0068000EC66EF00EC76EC868C968040118BC
:10FEEB006910690869070E206F28690069000E19EF
:10FEFB006F000E296F000E216F000E096F000E01AF
:10FF0B006F000E116F000E0201896F000E886F00DB
:10FF1B000E876F000E866F000E0401226F000E2AF3
:10FF2B006F000E026F000E0A6F000E126F000E1A9A
:10FF3B006F03690B6913691B69070E236F2B690428
:10FF4B00690C6914691C690F0E246F2C691200036C
:10FF5B000E206EE80E1F6E000E216E1BC514F51CD5
:10FF6B00C515F51FC516F520C517F536ECFFF014B2
:10FF7B0050226E22C514F5156A1FC516F520C5173C
:10FF8B00F5DDECFEF014501B5C1B6E15501C581C61
:10FF9B006E010E2224D96EDA6A050EDA22DF5022A8
:10FFAB006E2104D8A403D022508009226E21501D4B
:10FFBB006E1E6AD8901D361E360C0E1D24D96E058A
:10FFCB000E1E20DA6E610088F4DFF41FC514F520D5
:10FFDB00C515F5000E176E0A0E166E36ECFFF014F3
:10FFEB00C51FF515C520F5212A030E2164B6D712BE
:05FFFB0000CAEFFEF05A
:020000040020DA
:10000000FF0FFF0FFF0FFF0FFF0FFF0FFF0FFF0F80
:10001000FF0FFF0FFF0FFF0FFF0FFF0FFF0FFF0F70
:020000040030CA
:0A000000ECFFF7FF9FFFFFFFFFFF7B
:00000001FF
